:100000000C942A000C94A50C0C94DB0C0C940E0D93
:100010000C945E060C941A060C9447000C94C406CB
:100020000C94F7060C9491060C94E7050C94A30528
:100030000C9447000C9447000C9447000C94470024
:100040000C9447000C9447000C9447000C94470014
:100050000C94470011241FBECFE5D8E0DEBFCDBF12
:1000600010E0A8E6B0E001C01D92AD37B107E1F79E
:1000700010E0A0E6B0E0E6EFF4E202C005900D92D9
:10008000A836B107D9F70E9436120C9479120C9455
:100090000000EF92FF920F931F937B018C0120E0F1
:1000A00030E040E05FE40E94490388238CF0C801FF
:1000B000B70120E030E040E05FE40E94C1010E940F
:1000C000A9039B01AC01205030404040504806C07D
:1000D000C801B7010E94A9039B01AC01B901CA0183
:1000E0001F910F91FF90EF900895A0E0B0E0EBE733
:1000F000F0E00C944212DC012B01FA019C91923049
:1001000008F439C1EB018881823008F433C194309E
:1001100069F4843009F02FC111969C91119789815F
:10012000981709F428C1A0E6B0E025C1843009F48D
:1001300021C18230A9F4923009F01DC19A01AD01AC
:1001400088E0EA010990AE01E90109929E0181501F
:10015000C1F7E201898111969C918923818308C1AD
:10016000923009F407C112962D903C901397EB0141
:100170008A819B811496AD90BD90CD90DC901797AD
:10018000EC80FD800E811F819101281B390BB90184
:1001900037FF04C066277727621B730B6032710537
:1001A0000CF061C0121613066CF537014801062EDB
:1001B00004C096948794779467940A94D2F721E0C8
:1001C00030E040E050E004C0220F331F441F551FB1
:1001D0006A95D2F721503040404050402E213F21B7
:1001E00040235123211531054105510521F021E01E
:1001F00030E040E050E079018A01E628F72808293C
:1002000019293CC0232BD1F1260E371E350146019A
:10021000062E04C096948794779467940A94D2F734
:1002200021E030E040E050E004C0220F331F441FC3
:10023000551F6A95D2F721503040404050402A2146
:100240003B214C215D21211531054105510521F04E
:1002500021E030E040E050E059016A01A628B728CB
:10026000C828D9280BC0821593052CF01C01AA249C
:10027000BB24650103C0EE24FF24870111969C91E5
:10028000D20111968C91981709F445C0992339F041
:10029000A80197012A193B094C095D0906C0A6016E
:1002A00095012E193F09400B510B57FD08C01182D3
:1002B0003382228224833583468357831DC081E0A5
:1002C00081833382228288279927DC01821B930B4A
:1002D000A40BB50B84839583A683B7830DC0220F2F
:1002E000331F441F551F24833583468357838281E0
:1002F000938101979383828324813581468157813D
:10030000DA01C9010197A109B1098F5F9F4FAF4F72
:10031000BF4328F30BC0918333822282EA0CFB1C7B
:100320000C1D1D1DE482F5820683178383E0808304
:10033000248135814681578157FF1AC0C901AA27F8
:1003400097FDA095BA2F81709070A070B0705695EF
:10035000479537952795822B932BA42BB52B848318
:100360009583A683B7838281938101969383828349
:10037000DF0101C0D201CD01CDB7DEB7E2E10C94BF
:100380005E12A0E2B0E0E7ECF1E00C944E1269835B
:100390007A838B839C832D833E834F835887E9E048
:1003A000EE2EF12CEC0EFD1ECE010196B7010E943F
:1003B000D2048E010F5E1F4FCE010596B8010E9438
:1003C000D2048A8991E089278A8BC701B801AE01DE
:1003D000475E5F4F0E9475000E94FD03A096E6E015
:1003E0000C946A12A0E2B0E0E8EFF1E00C944E1237
:1003F00069837A838B839C832D833E834F835887C5
:10040000F9E0EF2EF12CEC0EFD1ECE010196B701A6
:100410000E94D2048E010F5E1F4FCE010596B801D7
:100420000E94D204C701B801AE01475E5F4F0E942F
:1004300075000E94FD03A096E6E00C946A12A0E20B
:10044000B0E0E5E2F2E00C94421269837A838B8398
:100450009C832D833E834F835887CE010196BE0136
:10046000675F7F4F0E94D204CE010596BE016F5E8A
:100470007F4F0E94D2049985923088F0898982301A
:10048000C8F0943019F4823051F404C0843029F457
:10049000923081F480E690E0C6C0923049F420E0CA
:1004A0009A858A89981321E02A87CE010996BBC0D4
:1004B000823049F420E09A858A89981321E02A8BBA
:1004C000CE014196B0C02D843E844F8458886D88FB
:1004D0007E888F88988CEE24FF248701AA24BB2471
:1004E000650140E050E060E070E0E0E0F0E0C10174
:1004F00081709070892BE9F0E60CF71C081D191D1E
:100500009A01AB012A0D3B1D4C1D5D1D80E090E062
:10051000A0E0B0E0E614F7040805190520F481E036
:1005200090E0A0E0B0E0BA01A901480F591F6A1F8E
:100530007B1FAA0CBB1CCC1CDD1C97FE08C081E0F5
:1005400090E0A0E0B0E0A82AB92ACA2ADB2A3196B6
:10055000E032F10549F0660C771C881C991C569412
:10056000479437942794C3CFFA85EA892B893C892D
:100570008B859C85280F391F2E5F3F4F17C0CA01FE
:1005800081709070892B61F016950795F794E79428
:1005900080E090E0A0E0B0E8E82AF92A0A2B1B2BC3
:1005A00076956795579547952F5F3F4F77FDE7CF36
:1005B0000CC0440F551F661F771F17FD4160EE0CDE
:1005C000FF1C001F111F21503040403090E05907A0
:1005D00090E0690790E4790760F32B8F3C8FDB0193
:1005E000CA018F779070A070B07080349105A1051A
:1005F000B10561F447FD0AC0E114F10401051105DC
:1006000029F0405C5F4F6F4F7F4F40781A8EFE1786
:1006100011F081E08A8F4D8F5E8F6F8F78A383E01A
:10062000898FCE0149960E94FD03A096E2E10C94C9
:100630005E12A8E1B0E0EFE1F3E00C944E126983A2
:100640007A838B839C832D833E834F83588789E0F5
:10065000E82EF12CEC0EFD1ECE010196B7010E9492
:10066000D2048E010F5E1F4FCE010596B8010E9485
:10067000D2048985823040F08989823028F0C70110
:10068000B8010E944A0501C08FEF6896E6E00C941D
:100690006A12A8E1B0E0EFE4F3E00C944E12698333
:1006A0007A838B839C832D833E834F83588789E095
:1006B000E82EF12CEC0EFD1ECE010196B7010E9432
:1006C000D2048E010F5E1F4FCE010596B8010E9425
:1006D000D2048985823040F08989823028F0C701B0
:1006E000B8010E944A0501C08FEF6896E6E00C94BD
:1006F0006A12A8E1B0E0EFE7F3E00C944E126983D0
:100700007A838B839C832D833E834F83588789E034
:10071000E82EF12CEC0EFD1ECE010196B7010E94D1
:10072000D2048E010F5E1F4FCE010596B8010E94C4
:10073000D2048985823040F08989823028F0C7014F
:10074000B8010E944A0501C081E06896E6E00C9479
:100750006A12ACE0B0E0EFEAF3E00C945212698365
:100760007A838B839C83CE010196BE016B5F7F4FA2
:100770000E94D2048D81823061F1823050F1843048
:1007800021F48E81882351F12EC02F81388537FDC9
:1007900020C06E812F3131051CF06623F9F023C093
:1007A0008EE190E0821B930B29853A854B855C8511
:1007B00004C056954795379527958A95D2F76623B5
:1007C000B1F050954095309521953F4F4F4F5F4F79
:1007D0000EC020E030E040E050E009C02FEF3FEFD6
:1007E0004FEF5FE704C020E030E040E050E8B9019F
:1007F000CA012C96E2E00C946E12DF92EF92FF9207
:100800000F931F93FC01E480F58006811781D1804E
:100810008081823048F480E090E0A0E1B0E0E82AF6
:10082000F92A0A2B1B2BA5C0843009F49FC0823003
:1008300021F4EE24FF24870105C0E114F104010531
:10084000110519F4E0E0F0E096C0628173819FEF3A
:10085000623879070CF05BC022E83FEF261B370BAC
:100860002A3131052CF020E030E040E050E02AC091
:10087000B801A701022E04C0769567955795479554
:100880000A94D2F781E090E0A0E0B0E004C0880FC5
:10089000991FAA1FBB1F2A95D2F70197A109B10979
:1008A0008E219F21A023B1230097A105B10521F03E
:1008B00081E090E0A0E0B0E09A01AB01282B392B59
:1008C0004A2B5B2BDA01C9018F779070A070B07052
:1008D00080349105A105B10539F427FF09C0205CDA
:1008E0003F4F4F4F5F4F04C0215C3F4F4F4F5F4F13
:1008F000E0E0F0E02030A0E03A07A0E04A07A0E402
:100900005A0710F0E1E0F0E079018A0127C0603871
:10091000710564F5FB01E158FF4FD801C7018F77DE
:100920009070A070B07080349105A105B10539F4C4
:10093000E7FE0DC080E490E0A0E0B0E004C08FE3EB
:1009400090E0A0E0B0E0E80EF91E0A1F1B1F17FFA1
:1009500005C016950795F794E794319687E01695AC
:100960000795F794E7948A95D1F705C0EE24FF2404
:100970008701EFEFF0E06E2F679566276795902F60
:100980009F77D794DD24D7948E2F8695492F462BB9
:10099000582F5D29B701CA011F910F91FF90EF9069
:1009A000DF900895FC01DB01408151812281622F9B
:1009B0006F7770E0221F2227221F9381892F880FD3
:1009C000822B282F30E0991F9927991F11969C930D
:1009D000119721153105A9F54115510561057105DD
:1009E00011F482E037C082E89FEF13969C938E93B8
:1009F00012979A01AB0167E0220F331F441F551F66
:100A00006A95D1F783E08C930DC0220F331F441FEA
:100A1000551F12968D919C911397019713969C9355
:100A20008E931297203080E0380780E0480780E4FA
:100A3000580758F314962D933D934D935C93179755
:100A400008952F3F310579F4411551056105710570
:100A500019F484E08C93089564FF03C081E08C93C3
:100A600012C01C9210C02F57304013963C932E9307
:100A7000129783E08C9387E0440F551F661F771F02
:100A80008A95D1F7706414964D935D936D937C9322
:100A9000179708951F93DC01FB019C91923008F495
:100AA00047C08081823008F443C0943051F41196DD
:100AB0001C91843099F58181682F70E0611B710968
:100AC0003FC0843021F0923031F48230B9F181811D
:100AD000882389F12DC011961C9111978230F1F075
:100AE00081811817D9F412962D913C911397828128
:100AF00093818217930794F028173907BCF0149656
:100B00008D919D910D90BC91A02D248135814681C0
:100B10005781281739074A075B0718F4112341F05A
:100B20000AC082179307A407B50740F4112319F0F0
:100B300061E070E005C06FEF7FEF02C060E070E041
:100B4000CB011F9108951F920F920FB60F9211249F
:100B50002F933F934F935F936F937F938F939F93C5
:100B6000AF93BF93EF93FF93DF93CF93CDB7DEB7F0
:100B700080916E00813069F480917C008F5F80935A
:100B80007C0080917C00843121F410926E001092E0
:100B90007C008091680090916900009729F0E091B5
:100BA0006800F09169000995CF91DF91FF91EF9175
:100BB000BF91AF919F918F917F916F915F914F9175
:100BC0003F912F910F900FBE0F901F9018951F927D
:100BD0000F920FB60F9211242F933F934F935F9371
:100BE0006F937F938F939F93AF93BF93EF93FF93F5
:100BF000DF93CF93CDB7DEB7809168009091690005
:100C0000009729F0E0916800F09169000995CF9173
:100C1000DF91FF91EF91BF91AF919F918F917F9164
:100C20006F915F914F913F912F910F900FBE0F9059
:100C30001F9018951F920F920FB60F9211242F93A9
:100C40003F934F935F936F937F938F939F93AF9354
:100C5000BF93EF93FF93DF93CF93CDB7DEB7809130
:100C60006F00813069F480917B008F5F80937B00FF
:100C700080917B00843121F410926F0010926F00FC
:100C800080916C0090916D00009729F0E0916C00CC
:100C9000F0916D000995CF91DF91FF91EF91BF9198
:100CA000AF919F918F917F916F915F914F913F9104
:100CB0002F910F900FBE0F901F9018951F920F92BB
:100CC0000FB60F9211242F933F934F935F936F931F
:100CD0007F938F939F93AF93BF93EF93FF93DF9394
:100CE000CF93CDB7DEB780916C0090916D000097E7
:100CF00029F0E0916C00F0916D000995CF91DF91A2
:100D0000FF91EF91BF91AF919F918F917F916F91E3
:100D10005F914F913F912F910F900FBE0F901F90B9
:100D200018951F920F920FB60F9211242F933F9395
:100D30004F935F936F937F938F939F93AF93BF93E3
:100D4000EF93FF93DF93CF93CDB7DEB780916A0027
:100D500090916B00009729F0E0916A00F0916B0090
:100D60000995CF91DF91FF91EF91BF91AF919F9145
:100D70008F917F916F915F914F913F912F910F9044
:100D80000FBE0F901F9018951F920F920FB60F92E3
:100D900011242F933F934F935F936F937F938F9380
:100DA0009F93AF93BF93EF93FF93DF93CF93CDB711
:100DB000DEB780916A0090916B00009729F0E09176
:100DC0006A00F0916B000995CF91DF91FF91EF914F
:100DD000BF91AF919F918F917F916F915F914F9153
:100DE0003F912F910F900FBE0F901F9018951F925B
:100DF0000F920FB60F9211242F933F934F935F934F
:100E00006F937F938F939F93AF93BF93EF93FF93D2
:100E1000DF93CF93CDB7DEB780916A0090916B00DE
:100E2000009729F0E0916A00F0916B000995CF914D
:100E3000DF91FF91EF91BF91AF919F918F917F9142
:100E40006F915F914F913F912F910F900FBE0F9037
:100E50001F901895DF93CF93CDB7DEB7A3E5B0E031
:100E6000E3E5F0E0808180688C93A3E5B0E0E3E502
:100E7000F0E08081877B8C93A3E5B0E0E3E5F0E0D0
:100E80008081887F8C93A3E5B0E0E3E5F0E080818A
:100E900081608C93A3E5B0E0E3E5F0E080818460BD
:100EA0008C93E2E5F0E01082ECE5F0E01082A5E43E
:100EB000B0E0E5E4F0E0808180688C93A5E4B0E0E8
:100EC000E5E4F0E08081877B8C93A5E4B0E0E5E485
:100ED000F0E08081887F8C93A5E4B0E0E5E4F0E069
:100EE000808181608C93A5E4B0E0E5E4F0E080814E
:100EF00082608C93A5E4B0E0E5E4F0E0808184605A
:100F00008C93E4E4F0E01082E3E4F0E01082AFE4DC
:100F1000B0E0EFE4F0E08081807F8C93AFE4B0E05C
:100F2000EFE4F0E080818E7F8C93AFE4B0E0EFE4FB
:100F3000F0E080818D7F8C93AEE4B0E0EEE4F0E0F1
:100F40008081877F8C93AEE4B0E0EEE4F0E08081B6
:100F50008F7E8C93AFE4B0E0EFE4F0E080818860B6
:100F60008C93AFE4B0E0EFE4F0E0808184608C9398
:100F7000AFE4B0E0EFE4F0E08081807F8C93A1E308
:100F8000B0E0E1E3F0E0808180628C93AFE4B0E018
:100F9000EFE4F0E0808180648C93AFE4B0E0EFE4B4
:100FA000F0E0808180688C93A1E3B0E0E1E3F0E0C1
:100FB000808180618C93AFE4B0E0EFE4F0E0808169
:100FC00080618C93AFE4B0E0EFE4F0E08081806278
:100FD0008C93AEE4B0E0EEE4F0E08081887F8C9307
:100FE000AEE4B0E0EEE4F0E0808181608C93AEE4AA
:100FF000B0E0EEE4F0E0808184608C93ECE4F0E01B
:1010000011821082EAE4F0E011821082E8E4F0E05C
:10101000118210820E940F08CF91DF910895DF9313
:10102000CF93CDB7DEB7A9E5B0E0E9E5F0E0808188
:1010300081608C93A9E5B0E0E9E5F0E0808180640F
:101040008C93A9E5B0E0E9E5F0E0808180618C93C4
:10105000CF91DF910895DF93CF9300D0CDB7DEB766
:101060009A83898389819A8190936900809368002B
:101070000F900F90CF91DF910895DF93CF9300D021
:10108000CDB7DEB79A83898389819A8190936B006B
:1010900080936A000F900F90CF91DF910895DF93B6
:1010A000CF9300D0CDB7DEB79A83898389819A81A7
:1010B00090936D0080936C000F900F90CF91DF9113
:1010C0000895DF93CF93CDB7DEB7E3E5F0E010826C
:1010D000E5E4F0E01082EFE4F0E01082EEE4F0E00E
:1010E0001082CF91DF910895DF93CF9300D000D08D
:1010F0000F92CDB7DEB789836A834B8389818430B1
:1011000008F0D5C08A81883008F0D1C08981282FA5
:1011100030E03D832C838C819D818130910509F4E1
:1011200043C02C813D81223031052CF48C819D817E
:10113000009771F0BCC02C813D812230310509F44B
:101140005FC08C819D818330910509F485C0AFC05B
:101150008B818130A1F4AAE3B0E0EAE3F0E0808182
:10116000482F8A81282F30E081E090E0022E02C0D3
:10117000880F991F0A94E2F7842B8C9398C0AAE3F6
:10118000B0E0EAE3F0E08081482F8A81282F30E048
:1011900081E090E0022E02C0880F991F0A94E2F7C6
:1011A000809584238C9383C08B818130A1F4A7E345
:1011B000B0E0E7E3F0E08081482F8A81282F30E01B
:1011C00081E090E0022E02C0880F991F0A94E2F796
:1011D000842B8C936CC0A7E3B0E0E7E3F0E0808160
:1011E000482F8A81282F30E081E090E0022E02C053
:1011F000880F991F0A94E2F7809584238C9357C037
:101200008B818130A1F4A4E3B0E0E4E3F0E08081DD
:10121000482F8A81282F30E081E090E0022E02C022
:10122000880F991F0A94E2F7842B8C9340C0A4E3A3
:10123000B0E0E4E3F0E08081482F8A81282F30E09D
:1012400081E090E0022E02C0880F991F0A94E2F715
:10125000809584238C932BC08B818130A1F4A1E3F2
:10126000B0E0E1E3F0E08081482F8A81282F30E070
:1012700081E090E0022E02C0880F991F0A94E2F7E5
:10128000842B8C9314C0A1E3B0E0E1E3F0E0808113
:10129000482F8A81282F30E081E090E0022E02C0A2
:1012A000880F991F0A94E2F7809584238C930F90FE
:1012B0000F900F900F900F90CF91DF910895DF93D3
:1012C000CF9300D000D00F92CDB7DEB78A836B8367
:1012D0008A81843008F084C08B81883008F080C017
:1012E0008A81282F30E03D832C834C815D81413001
:1012F000510579F18C819D818230910534F42C81E6
:101300003D812115310569F06BC04C815D81423012
:101310005105B9F18C819D818330910509F449C053
:101320005FC0E9E3F0E08081282F30E08B81882FD7
:1013300090E0A90102C0559547958A95E2F7CA0148
:1013400081709070882319F081E0898349C01982E7
:1013500047C0E6E3F0E08081282F30E08B81882FC2
:1013600090E0A90102C0559547958A95E2F7CA0118
:1013700081709070882319F081E0898331C01982CF
:101380002FC0E3E3F0E08081282F30E08B81882FAD
:1013900090E0A90102C0559547958A95E2F7CA01E8
:1013A00081709070882319F081E0898319C01982B7
:1013B00017C0E0E3F0E08081282F30E08B81882F98
:1013C00090E0A90102C0559547958A95E2F7CA01B8
:1013D00081709070882319F081E0898301C019829F
:1013E00089810F900F900F900F900F90CF91DF9108
:1013F0000895DF93CF9300D000D00F92CDB7DEB722
:1014000089836A834B838981843008F0D5C08A81BF
:10141000883008F0D1C08981282F30E03D832C83AB
:101420008C819D818130910509F443C02C813D81DF
:10143000223031052CF48C819D81009771F0BCC065
:101440002C813D812230310509F45FC08C819D8162
:101450008330910509F485C0AFC08B818130A1F440
:10146000ABE3B0E0EBE3F0E08081482F8A81282FE6
:1014700030E081E090E0022E02C0880F991F0A94AC
:10148000E2F7842B8C9398C0ABE3B0E0EBE3F0E0A1
:101490008081482F8A81282F30E081E090E0022E61
:1014A00002C0880F991F0A94E2F7809584238C93D9
:1014B00083C08B818130A1F4A8E3B0E0E8E3F0E0E1
:1014C0008081482F8A81282F30E081E090E0022E31
:1014D00002C0880F991F0A94E2F7842B8C936CC08A
:1014E000A8E3B0E0E8E3F0E08081482F8A81282F6C
:1014F00030E081E090E0022E02C0880F991F0A942C
:10150000E2F7809584238C9357C08B818130A1F4BE
:10151000A5E3B0E0E5E3F0E08081482F8A81282F41
:1015200030E081E090E0022E02C0880F991F0A94FB
:10153000E2F7842B8C9340C0A5E3B0E0E5E3F0E054
:101540008081482F8A81282F30E081E090E0022EB0
:1015500002C0880F991F0A94E2F7809584238C9328
:101560002BC08B818130A1F4A2E3B0E0E2E3F0E094
:101570008081482F8A81282F30E081E090E0022E80
:1015800002C0880F991F0A94E2F7842B8C9314C031
:10159000A2E3B0E0E2E3F0E08081482F8A81282FC7
:1015A00030E081E090E0022E02C0880F991F0A947B
:1015B000E2F7809584238C930F900F900F900F90FB
:1015C0000F90CF91DF910895DF93CF9300D000D09B
:1015D000CDB7DEB789836A838981843008F072C011
:1015E0008A81883008F06EC08981282F30E03C83E2
:1015F0002B838B819C818130910549F12B813C812A
:10160000223031052CF48B819C81009761F05AC007
:101610002B813C812230310571F18B819C8183309B
:101620009105E9F14FC0ABE3B0E0EBE3F0E080817E
:10163000482F8A81282F30E081E090E0022E02C0FE
:10164000880F991F0A94E2F784278C933BC0A8E384
:10165000B0E0E8E3F0E08081482F8A81282F30E075
:1016600081E090E0022E02C0880F991F0A94E2F7F1
:1016700084278C9327C0A5E3B0E0E5E3F0E0808108
:10168000482F8A81282F30E081E090E0022E02C0AE
:10169000880F991F0A94E2F784278C9313C0A2E362
:1016A000B0E0E2E3F0E08081482F8A81282F30E02B
:1016B00081E090E0022E02C0880F991F0A94E2F7A1
:1016C00084278C930F900F900F900F90CF91DF9104
:1016D0000895DF93CF9300D000D0CDB7DEB78983D4
:1016E0006A838981843008F052C08981282F30E0D4
:1016F0003C832B838B819C818130910511F12B815F
:101700003C81223031052CF48B819C81009761F063
:101710003EC02B813C812230310501F18B819C81BF
:101720008330910541F133C08A818F3F29F4EAE388
:10173000F0E08A8180832BC0EAE3F0E08A81808335
:1017400026C08A818F3F29F4E7E3F0E08A81808315
:101750001EC0E7E3F0E08A81808319C08A818F3F51
:1017600029F4E4E3F0E08A81808311C0E4E3F0E04F
:101770008A8180830CC08A818F3F29F4E1E3F0E005
:101780008A81808304C0E1E3F0E08A8180830F9046
:101790000F900F900F90CF91DF910895DF93CF932B
:1017A00000D000D0CDB7DEB78A838A81843090F52F
:1017B0008A81282F30E03C832B838B819C81813070
:1017C0009105D1F02B813C81223031052CF48B81A5
:1017D0009C81009761F01EC02B813C812230310535
:1017E00081F08B819C818330910581F013C0E9E306
:1017F000F0E0808189830EC0E6E3F0E08081898398
:1018000009C0E3E3F0E08081898304C0E0E3F0E015
:101810008081898389810F900F900F900F90CF91D5
:10182000DF910895DF93CF9300D000D0CDB7DEB71E
:1018300089836A838981843090F58981282F30E0FB
:101840003C832B838B819C8181309105D1F02B814E
:101850003C81223031052CF48B819C81009761F012
:101860001EC02B813C812230310581F08B819C810F
:101870008330910581F013C0EBE3F0E08A8180832F
:101880000EC0E8E3F0E08A81808309C0E5E3F0E080
:101890008A81808304C0E2E3F0E08A8180830F9034
:1018A0000F900F900F90CF91DF910895DF93CF931A
:1018B00000D00F92CDB7DEB789838981843008F0DC
:1018C0003EC08981282F30E03B832A838A819B8117
:1018D00081309105E9F02A813B81223031052CF4D9
:1018E0008A819B81009761F02AC02A813B81223046
:1018F0003105B1F08A819B8183309105C9F01FC009
:10190000ABE3B0E0EBE3F0E0808180958C9317C00F
:10191000A8E3B0E0E8E3F0E0808180958C930FC00D
:10192000A5E3B0E0E5E3F0E0808180958C9307C00B
:10193000A2E3B0E0E2E3F0E0808180958C930F9029
:101940000F900F90CF91DF9108951F920F920FB6D5
:101950000F9211242F933F934F935F936F937F9335
:101960008F939F93AF93BF93EF93FF93DF93CF93A7
:10197000CDB7DEB781E080937600809170009091C2
:101980007100009729F0E0917000F09171000995C5
:10199000CF91DF91FF91EF91BF91AF919F918F9187
:1019A0007F916F915F914F913F912F910F900FBE5B
:1019B0000F901F9018951F920F920FB60F9211243F
:1019C0002F933F934F935F936F937F938F939F9347
:1019D000AF93BF93EF93FF93DF93CF93CDB7DEB772
:1019E0008091720090917300009729F0E09172004D
:1019F000F09173000995CF91DF91FF91EF91BF9125
:101A0000AF919F918F917F916F915F914F913F9196
:101A10002F910F900FBE0F901F9018951F920F924D
:101A20000FB60F9211242F933F934F935F936F93B1
:101A30007F938F939F93AF93BF93EF93FF93DF9326
:101A4000CF93CDB7DEB78091740090917500009769
:101A500029F0E0917400F09175000995CF91DF9124
:101A6000FF91EF91BF91AF919F918F917F916F9176
:101A70005F914F913F912F910F900FBE0F901F904C
:101A80001895DF93CF93CDB7DEB7ABE5B0E0EBE5CC
:101A9000F0E0808180648C9383E062E040E00E940B
:101AA000740883E062E041E00E94F909A5E5B0E036
:101AB000E5E5F0E080818C7F8C93A5E5B0E0E5E57D
:101AC000F0E0808188608C93A5E5B0E0E5E5F0E08A
:101AD00080818B7F8C93CF91DF910895DF93CF939B
:101AE00000D0CDB7DEB79A83898389819A8190939C
:101AF0007100809370000F900F90CF91DF91089547
:101B0000DF93CF9300D0CDB7DEB79A8389838981E5
:101B10009A8190937300809372000F900F90CF91F1
:101B2000DF910895DF93CF9300D0CDB7DEB79A83CE
:101B3000898389819A8190937500809374000F90B6
:101B40000F90CF91DF910895DF93CF9300D00F9244
:101B5000CDB7DEB789838981282F30E03B832A8384
:101B60008A819B818330910509F44CC02A813B8195
:101B7000243031055CF48A819B8181309105B1F07C
:101B80002A813B812230310539F151C08A819B8104
:101B90008530910561F12A813B81253031058CF03A
:101BA0008A819B8186309105C1F141C080E062E06D
:101BB00041E00E94740880E062E040E00E94F90980
:101BC00036C081E062E041E00E94740881E062E09A
:101BD00041E00E94F9092BC080E061E041E00E94F1
:101BE000740880E061E040E00E94F90920C081E0D3
:101BF00061E041E00E94740881E061E041E00E9400
:101C0000F90915C080E060E041E00E94740880E0BE
:101C100060E040E00E94F9090AC081E060E041E034
:101C20000E94740881E060E041E00E94F90980E0D0
:101C30000F900F900F90CF91DF910895DF93CF9386
:101C400000D00F92CDB7DEB789838981282F30E08D
:101C50003B832A838A819B818330910509F44CC0A0
:101C60002A813B81243031055CF48A819B8181305B
:101C70009105B1F02A813B812230310539F151C003
:101C80008A819B818530910561F12A813B812530D4
:101C900031058CF08A819B8186309105C1F141C06C
:101CA00080E062E041E00E94740880E062E041E090
:101CB0000E94F90936C081E062E041E00E947408A8
:101CC00081E062E040E00E94F9092BC080E061E021
:101CD00041E00E94740880E061E041E00E94F9095F
:101CE00020C081E061E041E00E94740881E061E091
:101CF00040E00E94F90915C080E060E041E00E94E8
:101D0000740880E060E041E00E94F9090AC081E0C7
:101D100060E041E00E94740881E060E040E00E94E1
:101D2000F90981E00F900F900F90CF91DF91089506
:101D3000DF93CF930F92CDB7DEB7E0E3F0E0808181
:101D4000882F90E080749070009711F4198202C07F
:101D500081E0898389810F90CF91DF910895DF938E
:101D6000CF93CDB7DEB72E970FB6F894DEBF0FBE78
:101D7000CDBF80917600813009F09CC080E090E07A
:101D8000A0EFB1E48B879C87AD87BE876B857C8590
:101D90008D859E8520E030E04AE753E40E941F02D3
:101DA000DC01CB018F839887A987BA876F817885FB
:101DB00089859A8520E030E040E85FE30E9479035E
:101DC00088232CF481E090E09E838D833FC06F8157
:101DD000788589859A8520E03FEF4FE757E40E9498
:101DE000190318164CF56B857C858D859E8520E042
:101DF00030E040E251E40E941F02DC01CB01BC0153
:101E0000CD010E944900DC01CB019E838D830FC070
:101E100089E190E09C838B838B819C810197F1F712
:101E20009C838B838D819E8101979E838D838D8181
:101E30009E81009769F714C06F81788589859A859E
:101E40000E944900DC01CB019E838D838D819E81A0
:101E50009A83898389819A810197F1F79A8389838B
:101E600080917600813031F580916F00882339F4BC
:101E700010927C0081E080936F0010927B00809133
:101E80007B00882F90E081709070009751F485E07E
:101E90000E94A40D86E00E941E0E84E00E941E0E89
:101EA00009C085E00E941E0E86E00E941E0E84E09E
:101EB0000E941E0E80917C00882F90E081709070AF
:101EC000009751F482E00E94A40D83E00E941E0E50
:101ED00081E00E941E0E09C082E00E941E0E83E077
:101EE0000E941E0E81E00E941E0E2E960FB6F894E0
:101EF000DEBF0FBECDBFCF91DF910895DF93CF93AB
:101F0000CDB7DEB710927A0081E080936E00109218
:101F10007C0009C081E0809378000E94AF0E809120
:101F20007C00833121F080917C00843198F381E042
:101F300080936E0010927C0081E080936F0010927D
:101F40007B0015C081E08093770081E00E94A40DA2
:101F500082E00E941E0E83E00E941E0E85E00E9419
:101F60001E0E86E00E94A40D84E00E941E0E809149
:101F70006E00882339F781E00E941E0E82E00E94E5
:101F80001E0E83E00E941E0E85E00E941E0E86E05B
:101F90000E941E0E84E00E941E0E10927900CF91C6
:101FA000DF910895DF93CF930F92CDB7DEB781E035
:101FB00080937900109278001092770081E08093EE
:101FC0006E0010927C0019820CC00E94AF0E8091AE
:101FD0007600813011F481E0898380917C00833127
:101FE00021F080917C00843180F381E080936E0049
:101FF00010927C0081E080936F0010927B0081E062
:1020000080937A0014C01092790083E00E94A40D9E
:1020100082E00E941E0E81E00E941E0E84E00E945B
:10202000A40D86E00E941E0E85E00E941E0E809187
:102030006E00882321F080917600882321F3898126
:10204000813019F481E08093790081E00E941E0EB6
:1020500082E00E941E0E83E00E941E0E85E00E9418
:102060001E0E86E00E941E0E84E00E941E0E0F903F
:10207000CF91DF910895DF93CF93CDB7DEB78091F5
:102080007600882319F40E944B1002C00E945B1056
:10209000CF91DF910895DF93CF93CDB7DEB78091D5
:1020A0007700813019F40E94D20F02C00E947E0F87
:1020B000CF91DF910895DF93CF93CDB7DEB72E9701
:1020C0000FB6F894DEBF0FBECDBF80917600813091
:1020D00009F07CC080E090E0A0EFB1E48B879C87A2
:1020E000AD87BE876B857C858D859E8520E030E041
:1020F0004AE753E40E941F02DC01CB018F839887DB
:10210000A987BA876F81788589859A8520E030E034
:1021100040E85FE30E94790388232CF481E090E09B
:102120009E838D833FC06F81788589859A8520E065
:102130003FEF4FE757E40E94190318164CF56B85E3
:102140007C858D859E8520E030E040E251E40E9450
:102150001F02DC01CB01BC01CD010E944900DC0162
:10216000CB019E838D830FC089E190E09C838B839C
:102170008B819C810197F1F79C838B838D819E815C
:1021800001979E838D838D819E81009769F714C08E
:102190006F81788589859A850E944900DC01CB0191
:1021A0009E838D838D819E819A83898389819A8183
:1021B0000197F1F79A83898380917600813031F419
:1021C0000E94EF100E942912109276002E960FB6F0
:1021D000F894DEBF0FBECDBFCF91DF910895DF939E
:1021E000CF93CDB7DEB72E970FB6F894DEBF0FBEF4
:1021F000CDBF80917A00813009F022C181E08093C7
:102200006E0010927C0081E080936F0010927B0042
:1022100080917900813009F4CFC0C4C080917600EC
:10222000813009F09CC080E090E0A0EFB1E48B87A2
:102230009C87AD87BE876B857C858D859E8520E0DC
:1022400030E04AE753E40E941F02DC01CB018F8398
:102250009887A987BA876F81788589859A8520E0D4
:1022600030E040E85FE30E94790388232CF481E0AA
:1022700090E09E838D833FC06F81788589859A85A4
:1022800020E03FEF4FE757E40E94190318164CF582
:102290006B857C858D859E8520E030E040E251E4B1
:1022A0000E941F02DC01CB01BC01CD010E9449004C
:1022B000DC01CB019E838D830FC089E190E09C837C
:1022C0008B838B819C810197F1F79C838B838D811C
:1022D0009E8101979E838D838D819E81009769F7F2
:1022E00014C06F81788589859A850E944900DC0138
:1022F000CB019E838D838D819E819A838983898181
:102300009A810197F1F79A838983809176008130D1
:1023100031F580916F00882339F410927C0081E0C0
:1023200080936F0010927B0080917B00882F90E05B
:1023300081709070009751F485E00E94A40D86E0B2
:102340000E941E0E84E00E941E0E09C085E00E94BD
:102350001E0E86E00E941E0E84E00E941E0E8091DA
:102360007C00882F90E081709070009751F482E09B
:102370000E94A40D83E00E941E0E81E00E941E0EAA
:1023800009C082E00E941E0E83E00E941E0E81E0C2
:102390000E941E0E80917C00833171F080917B0041
:1023A000833151F080917C00843108F437CF8091E3
:1023B0007B00843108F432CF81E080936E0010926C
:1023C0007C0081E080936F0010927B001DC081E053
:1023D0008093770081E00E94A40D82E00E941E0E8F
:1023E00083E00E941E0E86E00E94A40D85E00E94FC
:1023F0001E0E84E00E941E0E80917B00833121F42A
:1024000080917C00833141F080916E00882321F01F
:1024100080916F008823D9F681E00E941E0E82E031
:102420000E941E0E83E00E941E0E84E00E941E0E7B
:1024300085E00E941E0E86E00E941E0E109276001D
:102440002E960FB6F894DEBF0FBECDBFCF91DF91B1
:102450000895DF93CF93CDB7DEB7809177008130B9
:1024600011F410927600CF91DF910895DF93CF930E
:10247000CDB7DEB70E942A070E94410D78940E94D2
:102480003B10FDCF2F923F924F925F926F927F92BF
:102490008F929F92AF92BF92CF92DF92EF92FF9274
:1024A0000F931F93CF93DF93CDB7DEB7CA1BDB0B20
:1024B0000FB6F894DEBF0FBECDBF09942A883988C5
:1024C00048885F846E847D848C849B84AA84B984CC
:1024D000C884DF80EE80FD800C811B81AA81B981D8
:1024E000CE0FD11D0FB6F894DEBF0FBECDBFED01EC
:0624F0000895F894FFCFEF
:0824F6000000000000000000DE
:00000001FF
